{
  "contractName": "Pixel",
  "abi": [
    {
      "inputs": [],
      "stateMutability": "nonpayable",
      "type": "constructor"
    },
    {
      "anonymous": false,
      "inputs": [
        {
          "indexed": true,
          "internalType": "address",
          "name": "owner",
          "type": "address"
        },
        {
          "indexed": true,
          "internalType": "address",
          "name": "approved",
          "type": "address"
        },
        {
          "indexed": true,
          "internalType": "uint256",
          "name": "tokenId",
          "type": "uint256"
        }
      ],
      "name": "Approval",
      "type": "event"
    },
    {
      "anonymous": false,
      "inputs": [
        {
          "indexed": true,
          "internalType": "address",
          "name": "owner",
          "type": "address"
        },
        {
          "indexed": true,
          "internalType": "address",
          "name": "operator",
          "type": "address"
        },
        {
          "indexed": false,
          "internalType": "bool",
          "name": "approved",
          "type": "bool"
        }
      ],
      "name": "ApprovalForAll",
      "type": "event"
    },
    {
      "anonymous": false,
      "inputs": [
        {
          "indexed": true,
          "internalType": "address",
          "name": "from",
          "type": "address"
        },
        {
          "indexed": true,
          "internalType": "address",
          "name": "to",
          "type": "address"
        },
        {
          "indexed": true,
          "internalType": "uint256",
          "name": "tokenId",
          "type": "uint256"
        }
      ],
      "name": "Transfer",
      "type": "event"
    },
    {
      "inputs": [
        {
          "internalType": "address",
          "name": "to",
          "type": "address"
        },
        {
          "internalType": "uint256",
          "name": "tokenId",
          "type": "uint256"
        }
      ],
      "name": "approve",
      "outputs": [],
      "stateMutability": "nonpayable",
      "type": "function"
    },
    {
      "inputs": [
        {
          "internalType": "address",
          "name": "owner",
          "type": "address"
        }
      ],
      "name": "balanceOf",
      "outputs": [
        {
          "internalType": "uint256",
          "name": "",
          "type": "uint256"
        }
      ],
      "stateMutability": "view",
      "type": "function"
    },
    {
      "inputs": [],
      "name": "baseURI",
      "outputs": [
        {
          "internalType": "string",
          "name": "",
          "type": "string"
        }
      ],
      "stateMutability": "view",
      "type": "function"
    },
    {
      "inputs": [],
      "name": "buyingFee",
      "outputs": [
        {
          "internalType": "uint256",
          "name": "",
          "type": "uint256"
        }
      ],
      "stateMutability": "view",
      "type": "function"
    },
    {
      "inputs": [],
      "name": "changingFee",
      "outputs": [
        {
          "internalType": "uint256",
          "name": "",
          "type": "uint256"
        }
      ],
      "stateMutability": "view",
      "type": "function"
    },
    {
      "inputs": [
        {
          "internalType": "uint256",
          "name": "tokenId",
          "type": "uint256"
        }
      ],
      "name": "getApproved",
      "outputs": [
        {
          "internalType": "address",
          "name": "",
          "type": "address"
        }
      ],
      "stateMutability": "view",
      "type": "function"
    },
    {
      "inputs": [
        {
          "internalType": "address",
          "name": "owner",
          "type": "address"
        },
        {
          "internalType": "address",
          "name": "operator",
          "type": "address"
        }
      ],
      "name": "isApprovedForAll",
      "outputs": [
        {
          "internalType": "bool",
          "name": "",
          "type": "bool"
        }
      ],
      "stateMutability": "view",
      "type": "function"
    },
    {
      "inputs": [],
      "name": "name",
      "outputs": [
        {
          "internalType": "string",
          "name": "",
          "type": "string"
        }
      ],
      "stateMutability": "view",
      "type": "function"
    },
    {
      "inputs": [
        {
          "internalType": "uint256",
          "name": "tokenId",
          "type": "uint256"
        }
      ],
      "name": "ownerOf",
      "outputs": [
        {
          "internalType": "address",
          "name": "",
          "type": "address"
        }
      ],
      "stateMutability": "view",
      "type": "function"
    },
    {
      "inputs": [
        {
          "internalType": "uint256",
          "name": "",
          "type": "uint256"
        }
      ],
      "name": "pixelColor",
      "outputs": [
        {
          "internalType": "uint32",
          "name": "",
          "type": "uint32"
        }
      ],
      "stateMutability": "view",
      "type": "function"
    },
    {
      "inputs": [
        {
          "internalType": "address",
          "name": "operator",
          "type": "address"
        },
        {
          "internalType": "bool",
          "name": "approved",
          "type": "bool"
        }
      ],
      "name": "setApprovalForAll",
      "outputs": [],
      "stateMutability": "nonpayable",
      "type": "function"
    },
    {
      "inputs": [
        {
          "internalType": "bytes4",
          "name": "interfaceId",
          "type": "bytes4"
        }
      ],
      "name": "supportsInterface",
      "outputs": [
        {
          "internalType": "bool",
          "name": "",
          "type": "bool"
        }
      ],
      "stateMutability": "view",
      "type": "function"
    },
    {
      "inputs": [],
      "name": "symbol",
      "outputs": [
        {
          "internalType": "string",
          "name": "",
          "type": "string"
        }
      ],
      "stateMutability": "view",
      "type": "function"
    },
    {
      "inputs": [
        {
          "internalType": "uint256",
          "name": "index",
          "type": "uint256"
        }
      ],
      "name": "tokenByIndex",
      "outputs": [
        {
          "internalType": "uint256",
          "name": "",
          "type": "uint256"
        }
      ],
      "stateMutability": "view",
      "type": "function"
    },
    {
      "inputs": [
        {
          "internalType": "address",
          "name": "owner",
          "type": "address"
        },
        {
          "internalType": "uint256",
          "name": "index",
          "type": "uint256"
        }
      ],
      "name": "tokenOfOwnerByIndex",
      "outputs": [
        {
          "internalType": "uint256",
          "name": "",
          "type": "uint256"
        }
      ],
      "stateMutability": "view",
      "type": "function"
    },
    {
      "inputs": [
        {
          "internalType": "uint256",
          "name": "tokenId",
          "type": "uint256"
        }
      ],
      "name": "tokenURI",
      "outputs": [
        {
          "internalType": "string",
          "name": "",
          "type": "string"
        }
      ],
      "stateMutability": "view",
      "type": "function"
    },
    {
      "inputs": [],
      "name": "totalSupply",
      "outputs": [
        {
          "internalType": "uint256",
          "name": "",
          "type": "uint256"
        }
      ],
      "stateMutability": "view",
      "type": "function"
    },
    {
      "inputs": [
        {
          "internalType": "uint256",
          "name": "_id",
          "type": "uint256"
        },
        {
          "internalType": "uint32",
          "name": "_color",
          "type": "uint32"
        }
      ],
      "name": "buyPixel",
      "outputs": [],
      "stateMutability": "payable",
      "type": "function"
    },
    {
      "inputs": [
        {
          "internalType": "uint256",
          "name": "_id",
          "type": "uint256"
        },
        {
          "internalType": "uint32",
          "name": "_newColor",
          "type": "uint32"
        }
      ],
      "name": "changeColor",
      "outputs": [],
      "stateMutability": "payable",
      "type": "function"
    },
    {
      "inputs": [
        {
          "internalType": "uint256",
          "name": "_id",
          "type": "uint256"
        }
      ],
      "name": "getPixelOwner",
      "outputs": [
        {
          "internalType": "address",
          "name": "",
          "type": "address"
        }
      ],
      "stateMutability": "view",
      "type": "function"
    },
    {
      "inputs": [
        {
          "internalType": "uint256",
          "name": "_id",
          "type": "uint256"
        }
      ],
      "name": "getColor",
      "outputs": [
        {
          "internalType": "uint32",
          "name": "",
          "type": "uint32"
        }
      ],
      "stateMutability": "view",
      "type": "function"
    },
    {
      "inputs": [
        {
          "internalType": "address",
          "name": "_owner",
          "type": "address"
        }
      ],
      "name": "getPixelsByOwner",
      "outputs": [
        {
          "internalType": "uint256[]",
          "name": "",
          "type": "uint256[]"
        }
      ],
      "stateMutability": "view",
      "type": "function"
    },
    {
      "inputs": [],
      "name": "getAllIds",
      "outputs": [
        {
          "internalType": "uint256[]",
          "name": "",
          "type": "uint256[]"
        }
      ],
      "stateMutability": "view",
      "type": "function"
    },
    {
      "inputs": [],
      "name": "withdraw",
      "outputs": [],
      "stateMutability": "nonpayable",
      "type": "function"
    },
    {
      "inputs": [
        {
          "internalType": "uint256",
          "name": "_newFee",
          "type": "uint256"
        }
      ],
      "name": "changeBuyFee",
      "outputs": [],
      "stateMutability": "nonpayable",
      "type": "function"
    },
    {
      "inputs": [
        {
          "internalType": "uint256",
          "name": "_newFee",
          "type": "uint256"
        }
      ],
      "name": "changeColorFee",
      "outputs": [],
      "stateMutability": "nonpayable",
      "type": "function"
    },
    {
      "inputs": [
        {
          "internalType": "address",
          "name": "from",
          "type": "address"
        },
        {
          "internalType": "address",
          "name": "to",
          "type": "address"
        },
        {
          "internalType": "uint256",
          "name": "tokenId",
          "type": "uint256"
        }
      ],
      "name": "transferFrom",
      "outputs": [],
      "stateMutability": "nonpayable",
      "type": "function"
    },
    {
      "inputs": [
        {
          "internalType": "address",
          "name": "from",
          "type": "address"
        },
        {
          "internalType": "address",
          "name": "to",
          "type": "address"
        },
        {
          "internalType": "uint256",
          "name": "tokenId",
          "type": "uint256"
        }
      ],
      "name": "safeTransferFrom",
      "outputs": [],
      "stateMutability": "nonpayable",
      "type": "function"
    },
    {
      "inputs": [
        {
          "internalType": "address",
          "name": "from",
          "type": "address"
        },
        {
          "internalType": "address",
          "name": "to",
          "type": "address"
        },
        {
          "internalType": "uint256",
          "name": "tokenId",
          "type": "uint256"
        },
        {
          "internalType": "bytes",
          "name": "_data",
          "type": "bytes"
        }
      ],
      "name": "safeTransferFrom",
      "outputs": [],
      "stateMutability": "nonpayable",
      "type": "function"
    }
  ],
  "bytecode": "0x60806040526611c37937e08000600e5566038d7ea4c68000600f5560006010553480156200002c57600080fd5b506040518060400160405280600581526020017f506978656c0000000000000000000000000000000000000000000000000000008152506040518060400160405280600381526020017f50584c0000000000000000000000000000000000000000000000000000000000815250620000b16301ffc9a760e01b6200017460201b60201c565b8160069080519060200190620000c99291906200027d565b508060079080519060200190620000e29291906200027d565b50620000fb6380ac58cd60e01b6200017460201b60201c565b62000113635b5e139f60e01b6200017460201b60201c565b6200012b63780e9d6360e01b6200017460201b60201c565b505033600a60006101000a81548173ffffffffffffffffffffffffffffffffffffffff021916908373ffffffffffffffffffffffffffffffffffffffff1602179055506200032c565b63ffffffff60e01b817bffffffffffffffffffffffffffffffffffffffffffffffffffffffff1916141562000211576040517f08c379a000000000000000000000000000000000000000000000000000000000815260040180806020018281038252601c8152602001807f4552433136353a20696e76616c696420696e746572666163652069640000000081525060200191505060405180910390fd5b6001600080837bffffffffffffffffffffffffffffffffffffffffffffffffffffffff19167bffffffffffffffffffffffffffffffffffffffffffffffffffffffff1916815260200190815260200160002060006101000a81548160ff02191690831515021790555050565b828054600181600116156101000203166002900490600052602060002090601f016020900481019282601f10620002c057805160ff1916838001178555620002f1565b82800160010185558215620002f1579182015b82811115620002f0578251825591602001919060010190620002d3565b5b50905062000300919062000304565b5090565b6200032991905b80821115620003255760008160009055506001016200030b565b5090565b90565b6138a7806200033c6000396000f3fe6080604052600436106101c25760003560e01c80637f29af4b116100f7578063c034fe3311610095578063e2e0ddcf11610064578063e2e0ddcf14610c8c578063e3233dcd14610cca578063e985e9c514610d05578063f86d995314610d8e576101c2565b8063c034fe3314610acc578063c87b56dd14610b72578063cbd8dc0a14610c26578063e0655fe514610c51576101c2565b806395d89b41116100d157806395d89b4114610861578063a22cb465146108f1578063aaa44e5c1461094e578063b88d4fde146109ba576101c2565b80637f29af4b1461076057806380057b9a1461078b5780638da29266146107e6576101c2565b80632f745c59116101645780634f6ccce71161013e5780634f6ccce7146105a15780636352211e146105f05780636c0360eb1461066b57806370a08231146106fb576101c2565b80632f745c59146104a05780633ccfd60b1461050f57806342842e0e14610526576101c2565b8063095ea7b3116101a0578063095ea7b31461034457806318160ddd1461039f5780631d8d0f48146103ca57806323b872dd14610425576101c2565b806301ffc9a7146101c757806306fdde0314610239578063081812fc146102c9575b600080fd5b3480156101d357600080fd5b5061021f600480360360208110156101ea57600080fd5b8101908080357bffffffffffffffffffffffffffffffffffffffffffffffffffffffff19169060200190929190505050610dcc565b604051808215151515815260200191505060405180910390f35b34801561024557600080fd5b5061024e610e33565b6040518080602001828103825283818151815260200191508051906020019080838360005b8381101561028e578082015181840152602081019050610273565b50505050905090810190601f1680156102bb5780820380516001836020036101000a031916815260200191505b509250505060405180910390f35b3480156102d557600080fd5b50610302600480360360208110156102ec57600080fd5b8101908080359060200190929190505050610ed5565b604051808273ffffffffffffffffffffffffffffffffffffffff1673ffffffffffffffffffffffffffffffffffffffff16815260200191505060405180910390f35b34801561035057600080fd5b5061039d6004803603604081101561036757600080fd5b81019080803573ffffffffffffffffffffffffffffffffffffffff16906020019092919080359060200190929190505050610f70565b005b3480156103ab57600080fd5b506103b46110b4565b6040518082815260200191505060405180910390f35b3480156103d657600080fd5b50610403600480360360208110156103ed57600080fd5b81019080803590602001909291905050506110c5565b604051808263ffffffff1663ffffffff16815260200191505060405180910390f35b34801561043157600080fd5b5061049e6004803603606081101561044857600080fd5b81019080803573ffffffffffffffffffffffffffffffffffffffff169060200190929190803573ffffffffffffffffffffffffffffffffffffffff169060200190929190803590602001909291905050506110e8565b005b3480156104ac57600080fd5b506104f9600480360360408110156104c357600080fd5b81019080803573ffffffffffffffffffffffffffffffffffffffff1690602001909291908035906020019092919050505061114a565b6040518082815260200191505060405180910390f35b34801561051b57600080fd5b506105246111a5565b005b34801561053257600080fd5b5061059f6004803603606081101561054957600080fd5b81019080803573ffffffffffffffffffffffffffffffffffffffff169060200190929190803573ffffffffffffffffffffffffffffffffffffffff1690602001909291908035906020019092919050505061128d565b005b3480156105ad57600080fd5b506105da600480360360208110156105c457600080fd5b81019080803590602001909291905050506112ff565b6040518082815260200191505060405180910390f35b3480156105fc57600080fd5b506106296004803603602081101561061357600080fd5b8101908080359060200190929190505050611322565b604051808273ffffffffffffffffffffffffffffffffffffffff1673ffffffffffffffffffffffffffffffffffffffff16815260200191505060405180910390f35b34801561067757600080fd5b50610680611359565b6040518080602001828103825283818151815260200191508051906020019080838360005b838110156106c05780820151818401526020810190506106a5565b50505050905090810190601f1680156106ed5780820380516001836020036101000a031916815260200191505b509250505060405180910390f35b34801561070757600080fd5b5061074a6004803603602081101561071e57600080fd5b81019080803573ffffffffffffffffffffffffffffffffffffffff1690602001909291905050506113fb565b6040518082815260200191505060405180910390f35b34801561076c57600080fd5b506107756114d0565b6040518082815260200191505060405180910390f35b34801561079757600080fd5b506107c4600480360360208110156107ae57600080fd5b81019080803590602001909291905050506114d6565b604051808263ffffffff1663ffffffff16815260200191505060405180910390f35b3480156107f257600080fd5b5061081f6004803603602081101561080957600080fd5b8101908080359060200190929190505050611503565b604051808273ffffffffffffffffffffffffffffffffffffffff1673ffffffffffffffffffffffffffffffffffffffff16815260200191505060405180910390f35b34801561086d57600080fd5b50610876611540565b6040518080602001828103825283818151815260200191508051906020019080838360005b838110156108b657808201518184015260208101905061089b565b50505050905090810190601f1680156108e35780820380516001836020036101000a031916815260200191505b509250505060405180910390f35b3480156108fd57600080fd5b5061094c6004803603604081101561091457600080fd5b81019080803573ffffffffffffffffffffffffffffffffffffffff1690602001909291908035151590602001909291905050506115e2565b005b34801561095a57600080fd5b5061096361179a565b6040518080602001828103825283818151815260200191508051906020019060200280838360005b838110156109a657808201518184015260208101905061098b565b505050509050019250505060405180910390f35b3480156109c657600080fd5b50610aca600480360360808110156109dd57600080fd5b81019080803573ffffffffffffffffffffffffffffffffffffffff169060200190929190803573ffffffffffffffffffffffffffffffffffffffff1690602001909291908035906020019092919080359060200190640100000000811115610a4457600080fd5b820183602082011115610a5657600080fd5b80359060200191846001830284011164010000000083111715610a7857600080fd5b91908080601f016020809104026020016040519081016040528093929190818152602001838380828437600081840152601f19601f820116905080830192505050505050509192919290505050611923565b005b348015610ad857600080fd5b50610b1b60048036036020811015610aef57600080fd5b81019080803573ffffffffffffffffffffffffffffffffffffffff169060200190929190505050611987565b6040518080602001828103825283818151815260200191508051906020019060200280838360005b83811015610b5e578082015181840152602081019050610b43565b505050509050019250505060405180910390f35b348015610b7e57600080fd5b50610bab60048036036020811015610b9557600080fd5b8101908080359060200190929190505050611b1e565b6040518080602001828103825283818151815260200191508051906020019080838360005b83811015610beb578082015181840152602081019050610bd0565b50505050905090810190601f168015610c185780820380516001836020036101000a031916815260200191505b509250505060405180910390f35b348015610c3257600080fd5b50610c3b611e07565b6040518082815260200191505060405180910390f35b348015610c5d57600080fd5b50610c8a60048036036020811015610c7457600080fd5b8101908080359060200190929190505050611e0d565b005b610cc860048036036040811015610ca257600080fd5b8101908080359060200190929190803563ffffffff169060200190929190505050611e71565b005b348015610cd657600080fd5b50610d0360048036036020811015610ced57600080fd5b81019080803590602001909291905050506120ef565b005b348015610d1157600080fd5b50610d7460048036036040811015610d2857600080fd5b81019080803573ffffffffffffffffffffffffffffffffffffffff169060200190929190803573ffffffffffffffffffffffffffffffffffffffff169060200190929190505050612153565b604051808215151515815260200191505060405180910390f35b610dca60048036036040811015610da457600080fd5b8101908080359060200190929190803563ffffffff1690602001909291905050506121e7565b005b6000806000837bffffffffffffffffffffffffffffffffffffffffffffffffffffffff19167bffffffffffffffffffffffffffffffffffffffffffffffffffffffff1916815260200190815260200160002060009054906101000a900460ff169050919050565b606060068054600181600116156101000203166002900480601f016020809104026020016040519081016040528092919081815260200182805460018160011615610100020316600290048015610ecb5780601f10610ea057610100808354040283529160200191610ecb565b820191906000526020600020905b815481529060010190602001808311610eae57829003601f168201915b5050505050905090565b6000610ee08261234b565b610f35576040517f08c379a000000000000000000000000000000000000000000000000000000000815260040180806020018281038252602c815260200180613774602c913960400191505060405180910390fd5b6004600083815260200190815260200160002060009054906101000a900473ffffffffffffffffffffffffffffffffffffffff169050919050565b6000610f7b82611322565b90508073ffffffffffffffffffffffffffffffffffffffff168373ffffffffffffffffffffffffffffffffffffffff161415611002576040517f08c379a00000000000000000000000000000000000000000000000000000000081526004018080602001828103825260218152602001806137f86021913960400191505060405180910390fd5b8073ffffffffffffffffffffffffffffffffffffffff16611021612368565b73ffffffffffffffffffffffffffffffffffffffff161480611050575061104f8161104a612368565b612153565b5b6110a5576040517f08c379a00000000000000000000000000000000000000000000000000000000081526004018080602001828103825260388152602001806136c76038913960400191505060405180910390fd5b6110af8383612370565b505050565b60006110c06002612429565b905090565b600d6020528060005260406000206000915054906101000a900463ffffffff1681565b6110f383838361243e565b81600c600083815260200190815260200160002060006101000a81548173ffffffffffffffffffffffffffffffffffffffff021916908373ffffffffffffffffffffffffffffffffffffffff160217905550505050565b600061119d82600160008673ffffffffffffffffffffffffffffffffffffffff1673ffffffffffffffffffffffffffffffffffffffff1681526020019081526020016000206124b490919063ffffffff16565b905092915050565b600a60009054906101000a900473ffffffffffffffffffffffffffffffffffffffff1673ffffffffffffffffffffffffffffffffffffffff163373ffffffffffffffffffffffffffffffffffffffff16146111ff57600080fd5b600030905060008173ffffffffffffffffffffffffffffffffffffffff16319050600a60009054906101000a900473ffffffffffffffffffffffffffffffffffffffff1673ffffffffffffffffffffffffffffffffffffffff166108fc829081150290604051600060405180830381858888f19350505050158015611288573d6000803e3d6000fd5b505050565b6112a8838383604051806020016040528060008152506124ce565b81600c600083815260200190815260200160002060006101000a81548173ffffffffffffffffffffffffffffffffffffffff021916908373ffffffffffffffffffffffffffffffffffffffff160217905550505050565b60008061131683600261254690919063ffffffff16565b50905080915050919050565b6000611352826040518060600160405280602981526020016137296029913960026125759092919063ffffffff16565b9050919050565b606060098054600181600116156101000203166002900480601f0160208091040260200160405190810160405280929190818152602001828054600181600116156101000203166002900480156113f15780601f106113c6576101008083540402835291602001916113f1565b820191906000526020600020905b8154815290600101906020018083116113d457829003601f168201915b5050505050905090565b60008073ffffffffffffffffffffffffffffffffffffffff168273ffffffffffffffffffffffffffffffffffffffff161415611482576040517f08c379a000000000000000000000000000000000000000000000000000000000815260040180806020018281038252602a8152602001806136ff602a913960400191505060405180910390fd5b6114c9600160008473ffffffffffffffffffffffffffffffffffffffff1673ffffffffffffffffffffffffffffffffffffffff168152602001908152602001600020612594565b9050919050565b600f5481565b6000600d600083815260200190815260200160002060009054906101000a900463ffffffff169050919050565b6000600c600083815260200190815260200160002060009054906101000a900473ffffffffffffffffffffffffffffffffffffffff169050919050565b606060078054600181600116156101000203166002900480601f0160208091040260200160405190810160405280929190818152602001828054600181600116156101000203166002900480156115d85780601f106115ad576101008083540402835291602001916115d8565b820191906000526020600020905b8154815290600101906020018083116115bb57829003601f168201915b5050505050905090565b6115ea612368565b73ffffffffffffffffffffffffffffffffffffffff168273ffffffffffffffffffffffffffffffffffffffff16141561168b576040517f08c379a00000000000000000000000000000000000000000000000000000000081526004018080602001828103825260198152602001807f4552433732313a20617070726f766520746f2063616c6c65720000000000000081525060200191505060405180910390fd5b8060056000611698612368565b73ffffffffffffffffffffffffffffffffffffffff1673ffffffffffffffffffffffffffffffffffffffff16815260200190815260200160002060008473ffffffffffffffffffffffffffffffffffffffff1673ffffffffffffffffffffffffffffffffffffffff16815260200190815260200160002060006101000a81548160ff0219169083151502179055508173ffffffffffffffffffffffffffffffffffffffff16611745612368565b73ffffffffffffffffffffffffffffffffffffffff167f17307eab39ab6107e8899845ad3d59bd9653f200f220920489ca2b5937696c3183604051808215151515815260200191505060405180910390a35050565b606060006010541415611815576040517f08c379a00000000000000000000000000000000000000000000000000000000081526004018080602001828103825260138152602001807f4e6f20506978656c206d696e746564207965740000000000000000000000000081525060200191505060405180910390fd5b60606010546040519080825280602002602001820160405280156118485781602001602082028038833980820191505090505b5090506000809050600061185a6110b4565b905060008090505b81811015611919576000600b6000838152602001908152602001600020549050600073ffffffffffffffffffffffffffffffffffffffff16600c600083815260200190815260200160002060009054906101000a900473ffffffffffffffffffffffffffffffffffffffff1673ffffffffffffffffffffffffffffffffffffffff161461190b57808585815181106118f657fe5b60200260200101818152505083806001019450505b508080600101915050611862565b5082935050505090565b61192f848484846124ce565b82600c600084815260200190815260200160002060006101000a81548173ffffffffffffffffffffffffffffffffffffffff021916908373ffffffffffffffffffffffffffffffffffffffff16021790555050505050565b606060006010541415611a02576040517f08c379a00000000000000000000000000000000000000000000000000000000081526004018080602001828103825260138152602001807f4e6f20506978656c206d696e746564207965740000000000000000000000000081525060200191505060405180910390fd5b6000611a0d836113fb565b9050606081604051908082528060200260200182016040528015611a405781602001602082028038833980820191505090505b50905060008090506000611a526110b4565b905060008090505b81811015611b11576000600b60008381526020019081526020016000205490508773ffffffffffffffffffffffffffffffffffffffff16600c600083815260200190815260200160002060009054906101000a900473ffffffffffffffffffffffffffffffffffffffff1673ffffffffffffffffffffffffffffffffffffffff161415611b035780858581518110611aee57fe5b60200260200101818152505083806001019450505b508080600101915050611a5a565b5082945050505050919050565b6060611b298261234b565b611b7e576040517f08c379a000000000000000000000000000000000000000000000000000000000815260040180806020018281038252602f8152602001806137c9602f913960400191505060405180910390fd5b6060600860008481526020019081526020016000208054600181600116156101000203166002900480601f016020809104026020016040519081016040528092919081815260200182805460018160011615610100020316600290048015611c275780601f10611bfc57610100808354040283529160200191611c27565b820191906000526020600020905b815481529060010190602001808311611c0a57829003601f168201915b50505050509050600060098054600181600116156101000203166002900490501415611c565780915050611e02565b600081511115611d2f576009816040516020018083805460018160011615610100020316600290048015611cc15780601f10611c9f576101008083540402835291820191611cc1565b820191906000526020600020905b815481529060010190602001808311611cad575b505082805190602001908083835b60208310611cf25780518252602082019150602081019050602083039250611ccf565b6001836020036101000a03801982511681845116808217855250505050505090500192505050604051602081830303815290604052915050611e02565b6009611d3a846125a9565b6040516020018083805460018160011615610100020316600290048015611d985780601f10611d76576101008083540402835291820191611d98565b820191906000526020600020905b815481529060010190602001808311611d84575b505082805190602001908083835b60208310611dc95780518252602082019150602081019050602083039250611da6565b6001836020036101000a038019825116818451168082178552505050505050905001925050506040516020818303038152906040529150505b919050565b600e5481565b600a60009054906101000a900473ffffffffffffffffffffffffffffffffffffffff1673ffffffffffffffffffffffffffffffffffffffff163373ffffffffffffffffffffffffffffffffffffffff1614611e6757600080fd5b80600e8190555050565b620f424060105410611eeb576040517f08c379a00000000000000000000000000000000000000000000000000000000081526004018080602001828103825260178152602001807f416c6c20506978656c7320616c726561647920736f6c6400000000000000000081525060200191505060405180910390fd5b600073ffffffffffffffffffffffffffffffffffffffff16600c600084815260200190815260200160002060009054906101000a900473ffffffffffffffffffffffffffffffffffffffff1673ffffffffffffffffffffffffffffffffffffffff1614611fc0576040517f08c379a00000000000000000000000000000000000000000000000000000000081526004018080602001828103825260148152602001807f506978656c20616c726561647920626f7567687400000000000000000000000081525060200191505060405180910390fd5b600e543414612037576040517f08c379a000000000000000000000000000000000000000000000000000000000815260040180806020018281038252601c8152602001807f507269636520666f7220506978656c20697320696e636f72726563740000000081525060200191505060405180910390fd5b61204133836126d9565b33600c600084815260200190815260200160002060006101000a81548173ffffffffffffffffffffffffffffffffffffffff021916908373ffffffffffffffffffffffffffffffffffffffff16021790555080600d600084815260200190815260200160002060006101000a81548163ffffffff021916908363ffffffff16021790555081600b60006010548152602001908152602001600020819055506001601054016010819055505050565b600a60009054906101000a900473ffffffffffffffffffffffffffffffffffffffff1673ffffffffffffffffffffffffffffffffffffffff163373ffffffffffffffffffffffffffffffffffffffff161461214957600080fd5b80600f8190555050565b6000600560008473ffffffffffffffffffffffffffffffffffffffff1673ffffffffffffffffffffffffffffffffffffffff16815260200190815260200160002060008373ffffffffffffffffffffffffffffffffffffffff1673ffffffffffffffffffffffffffffffffffffffff16815260200190815260200160002060009054906101000a900460ff16905092915050565b600c600083815260200190815260200160002060009054906101000a900473ffffffffffffffffffffffffffffffffffffffff1673ffffffffffffffffffffffffffffffffffffffff163373ffffffffffffffffffffffffffffffffffffffff16146122bb576040517f08c379a000000000000000000000000000000000000000000000000000000000815260040180806020018281038252601d8152602001807f53656e64657220646f6573206e6f74206f776e2074686520506978656c00000081525060200191505060405180910390fd5b600f543414612315576040517f08c379a000000000000000000000000000000000000000000000000000000000815260040180806020018281038252602881526020018061384a6028913960400191505060405180910390fd5b80600d600084815260200190815260200160002060006101000a81548163ffffffff021916908363ffffffff1602179055505050565b60006123618260026128cd90919063ffffffff16565b9050919050565b600033905090565b816004600083815260200190815260200160002060006101000a81548173ffffffffffffffffffffffffffffffffffffffff021916908373ffffffffffffffffffffffffffffffffffffffff160217905550808273ffffffffffffffffffffffffffffffffffffffff166123e383611322565b73ffffffffffffffffffffffffffffffffffffffff167f8c5be1e5ebec7d5bd14f71427d1e84f3dd0314c0f7b2291e5b200ac8c7c3b92560405160405180910390a45050565b6000612437826000016128e7565b9050919050565b61244f612449612368565b826128f8565b6124a4576040517f08c379a00000000000000000000000000000000000000000000000000000000081526004018080602001828103825260318152602001806138196031913960400191505060405180910390fd5b6124af8383836129ec565b505050565b60006124c38360000183612c2f565b60001c905092915050565b6124df6124d9612368565b836128f8565b612534576040517f08c379a00000000000000000000000000000000000000000000000000000000081526004018080602001828103825260318152602001806138196031913960400191505060405180910390fd5b61254084848484612cb2565b50505050565b6000806000806125598660000186612d24565b915091508160001c8160001c8090509350935050509250929050565b6000612588846000018460001b84612dbd565b60001c90509392505050565b60006125a282600001612eb3565b9050919050565b606060008214156125f1576040518060400160405280600181526020017f300000000000000000000000000000000000000000000000000000000000000081525090506126d4565b600082905060005b6000821461261b578080600101915050600a828161261357fe5b0491506125f9565b6060816040519080825280601f01601f1916602001820160405280156126505781602001600182028038833980820191505090505b50905060006001830390508593505b600084146126cc57600a848161267157fe5b0660300160f81b8282806001900393508151811061268b57fe5b60200101907effffffffffffffffffffffffffffffffffffffffffffffffffffffffffffff1916908160001a905350600a84816126c457fe5b04935061265f565b819450505050505b919050565b600073ffffffffffffffffffffffffffffffffffffffff168273ffffffffffffffffffffffffffffffffffffffff16141561277c576040517f08c379a00000000000000000000000000000000000000000000000000000000081526004018080602001828103825260208152602001807f4552433732313a206d696e7420746f20746865207a65726f206164647265737381525060200191505060405180910390fd5b6127858161234b565b156127f8576040517f08c379a000000000000000000000000000000000000000000000000000000000815260040180806020018281038252601c8152602001807f4552433732313a20746f6b656e20616c7265616479206d696e7465640000000081525060200191505060405180910390fd5b61280460008383612ec4565b61285581600160008573ffffffffffffffffffffffffffffffffffffffff1673ffffffffffffffffffffffffffffffffffffffff168152602001908152602001600020612ec990919063ffffffff16565b5061286c81836002612ee39092919063ffffffff16565b50808273ffffffffffffffffffffffffffffffffffffffff16600073ffffffffffffffffffffffffffffffffffffffff167fddf252ad1be2c89b69c2b068fc378daa952ba7f163c4a11628f55a4df523b3ef60405160405180910390a45050565b60006128df836000018360001b612f18565b905092915050565b600081600001805490509050919050565b60006129038261234b565b612958576040517f08c379a000000000000000000000000000000000000000000000000000000000815260040180806020018281038252602c81526020018061369b602c913960400191505060405180910390fd5b600061296383611322565b90508073ffffffffffffffffffffffffffffffffffffffff168473ffffffffffffffffffffffffffffffffffffffff1614806129d257508373ffffffffffffffffffffffffffffffffffffffff166129ba84610ed5565b73ffffffffffffffffffffffffffffffffffffffff16145b806129e357506129e28185612153565b5b91505092915050565b8273ffffffffffffffffffffffffffffffffffffffff16612a0c82611322565b73ffffffffffffffffffffffffffffffffffffffff1614612a78576040517f08c379a00000000000000000000000000000000000000000000000000000000081526004018080602001828103825260298152602001806137a06029913960400191505060405180910390fd5b600073ffffffffffffffffffffffffffffffffffffffff168273ffffffffffffffffffffffffffffffffffffffff161415612afe576040517f08c379a00000000000000000000000000000000000000000000000000000000081526004018080602001828103825260248152602001806136776024913960400191505060405180910390fd5b612b09838383612ec4565b612b14600082612370565b612b6581600160008673ffffffffffffffffffffffffffffffffffffffff1673ffffffffffffffffffffffffffffffffffffffff168152602001908152602001600020612f3b90919063ffffffff16565b50612bb781600160008573ffffffffffffffffffffffffffffffffffffffff1673ffffffffffffffffffffffffffffffffffffffff168152602001908152602001600020612ec990919063ffffffff16565b50612bce81836002612ee39092919063ffffffff16565b50808273ffffffffffffffffffffffffffffffffffffffff168473ffffffffffffffffffffffffffffffffffffffff167fddf252ad1be2c89b69c2b068fc378daa952ba7f163c4a11628f55a4df523b3ef60405160405180910390a4505050565b600081836000018054905011612c90576040517f08c379a00000000000000000000000000000000000000000000000000000000081526004018080602001828103825260228152602001806136236022913960400191505060405180910390fd5b826000018281548110612c9f57fe5b9060005260206000200154905092915050565b612cbd8484846129ec565b612cc984848484612f55565b612d1e576040517f08c379a00000000000000000000000000000000000000000000000000000000081526004018080602001828103825260328152602001806136456032913960400191505060405180910390fd5b50505050565b60008082846000018054905011612d86576040517f08c379a00000000000000000000000000000000000000000000000000000000081526004018080602001828103825260228152602001806137526022913960400191505060405180910390fd5b6000846000018481548110612d9757fe5b906000526020600020906002020190508060000154816001015492509250509250929050565b60008084600101600085815260200190815260200160002054905060008114158390612e84576040517f08c379a00000000000000000000000000000000000000000000000000000000081526004018080602001828103825283818151815260200191508051906020019080838360005b83811015612e49578082015181840152602081019050612e2e565b50505050905090810190601f168015612e765780820380516001836020036101000a031916815260200191505b509250505060405180910390fd5b50846000016001820381548110612e9757fe5b9060005260206000209060020201600101549150509392505050565b600081600001805490509050919050565b505050565b6000612edb836000018360001b61319a565b905092915050565b6000612f0f846000018460001b8473ffffffffffffffffffffffffffffffffffffffff1660001b61320a565b90509392505050565b600080836001016000848152602001908152602001600020541415905092915050565b6000612f4d836000018360001b6132e6565b905092915050565b6000612f768473ffffffffffffffffffffffffffffffffffffffff166133ce565b612f835760019050613192565b606061311963150b7a0260e01b612f98612368565b888787604051602401808573ffffffffffffffffffffffffffffffffffffffff1673ffffffffffffffffffffffffffffffffffffffff1681526020018473ffffffffffffffffffffffffffffffffffffffff1673ffffffffffffffffffffffffffffffffffffffff16815260200183815260200180602001828103825283818151815260200191508051906020019080838360005b8381101561304857808201518184015260208101905061302d565b50505050905090810190601f1680156130755780820380516001836020036101000a031916815260200191505b5095505050505050604051602081830303815290604052907bffffffffffffffffffffffffffffffffffffffffffffffffffffffff19166020820180517bffffffffffffffffffffffffffffffffffffffffffffffffffffffff8381831617835250505050604051806060016040528060328152602001613645603291398773ffffffffffffffffffffffffffffffffffffffff166133e19092919063ffffffff16565b9050600081806020019051602081101561313257600080fd5b8101908080519060200190929190505050905063150b7a0260e01b7bffffffffffffffffffffffffffffffffffffffffffffffffffffffff1916817bffffffffffffffffffffffffffffffffffffffffffffffffffffffff191614925050505b949350505050565b60006131a683836133f9565b6131ff578260000182908060018154018082558091505060019003906000526020600020016000909190919091505582600001805490508360010160008481526020019081526020016000208190555060019050613204565b600090505b92915050565b60008084600101600085815260200190815260200160002054905060008114156132b1578460000160405180604001604052808681526020018581525090806001815401808255809150506001900390600052602060002090600202016000909190919091506000820151816000015560208201518160010155505084600001805490508560010160008681526020019081526020016000208190555060019150506132df565b828560000160018303815481106132c457fe5b90600052602060002090600202016001018190555060009150505b9392505050565b600080836001016000848152602001908152602001600020549050600081146133c2576000600182039050600060018660000180549050039050600086600001828154811061333157fe5b906000526020600020015490508087600001848154811061334e57fe5b906000526020600020018190555060018301876001016000838152602001908152602001600020819055508660000180548061338657fe5b600190038181906000526020600020016000905590558660010160008781526020019081526020016000206000905560019450505050506133c8565b60009150505b92915050565b600080823b905060008111915050919050565b60606133f0848460008561341c565b90509392505050565b600080836001016000848152602001908152602001600020541415905092915050565b6060613427856133ce565b613499576040517f08c379a000000000000000000000000000000000000000000000000000000000815260040180806020018281038252601d8152602001807f416464726573733a2063616c6c20746f206e6f6e2d636f6e747261637400000081525060200191505060405180910390fd5b600060608673ffffffffffffffffffffffffffffffffffffffff1685876040518082805190602001908083835b602083106134e957805182526020820191506020810190506020830392506134c6565b6001836020036101000a03801982511681845116808217855250505050505090500191505060006040518083038185875af1925050503d806000811461354b576040519150601f19603f3d011682016040523d82523d6000602084013e613550565b606091505b5091509150811561356557809250505061361a565b6000815111156135785780518082602001fd5b836040517f08c379a00000000000000000000000000000000000000000000000000000000081526004018080602001828103825283818151815260200191508051906020019080838360005b838110156135df5780820151818401526020810190506135c4565b50505050905090810190601f16801561360c5780820380516001836020036101000a031916815260200191505b509250505060405180910390fd5b94935050505056fe456e756d657261626c655365743a20696e646578206f7574206f6620626f756e64734552433732313a207472616e7366657220746f206e6f6e20455243373231526563656976657220696d706c656d656e7465724552433732313a207472616e7366657220746f20746865207a65726f20616464726573734552433732313a206f70657261746f7220717565727920666f72206e6f6e6578697374656e7420746f6b656e4552433732313a20617070726f76652063616c6c6572206973206e6f74206f776e6572206e6f7220617070726f76656420666f7220616c6c4552433732313a2062616c616e636520717565727920666f7220746865207a65726f20616464726573734552433732313a206f776e657220717565727920666f72206e6f6e6578697374656e7420746f6b656e456e756d657261626c654d61703a20696e646578206f7574206f6620626f756e64734552433732313a20617070726f76656420717565727920666f72206e6f6e6578697374656e7420746f6b656e4552433732313a207472616e73666572206f6620746f6b656e2074686174206973206e6f74206f776e4552433732314d657461646174613a2055524920717565727920666f72206e6f6e6578697374656e7420746f6b656e4552433732313a20617070726f76616c20746f2063757272656e74206f776e65724552433732313a207472616e736665722063616c6c6572206973206e6f74206f776e6572206e6f7220617070726f766564507269636520746f206368616e676520506978656c20636f6c6f7220697320696e636f7272656374a264697066735822122064f14a3321f692bf12a2510297db1ef84de78828bdb70e88cbc5e54ca882bb8a64736f6c63430006020033",
  "source": "// contracts/canvas.sol\n// SPDX-License-Identifier: None\npragma solidity >=0.6.0;\n\n\nimport \"../node_modules/@openzeppelin/contracts/token/ERC721/ERC721.sol\";\n//import \"@openzeppelin/contracts/token/ERC721/ERC721.sol\";\n\ncontract Pixel is ERC721 {\n    address payable private owner;\n    \n    //contract own address : address(this);\n\n    mapping(uint256 => uint256) internal takenIds;\n    mapping(uint256 => address) internal idToOwner;\n    mapping(uint256 => uint32) public pixelColor;\n    \n    uint public buyingFee = 0.005 ether;\n    uint public changingFee = 0.001 ether;\n    \n    uint private idCount = 0;\n    \n    modifier onlyOwner() {\n        require(msg.sender == owner);\n        _;\n    }\n     \n    constructor() public ERC721(\"Pixel\", \"PXL\") {\n        owner = msg.sender;\n    }\n    \n    function buyPixel(uint256 _id, uint32 _color) public payable {\n        require(idCount < 1000000, \"All Pixels already sold\");\n        require(idToOwner[_id] == address(0x0), \"Pixel already bought\");\n        require(msg.value == buyingFee, \"Price for Pixel is incorrect\");\n        _mint(msg.sender, _id);\n        idToOwner[_id] = msg.sender;\n        pixelColor[_id] = _color;\n        takenIds[idCount] = _id;\n        idCount = idCount +1;\n    }\n    \n    function changeColor(uint256 _id, uint32 _newColor) public payable {\n        require(msg.sender == idToOwner[_id], \"Sender does not own the Pixel\");\n        require(msg.value == changingFee, \"Price to change Pixel color is incorrect\");\n        pixelColor[_id] = _newColor;\n    }\n    \n    function getPixelOwner(uint256 _id) public view returns (address) {\n        return idToOwner[_id];\n    }\n    \n    function getColor(uint256 _id) public view returns (uint32) {\n        return pixelColor[_id];\n    }\n    \n\n    function getPixelsByOwner(address _owner) public view returns (uint[] memory){\n        require(idCount != 0, 'No Pixel minted yet');\n        uint pixelCount = balanceOf(_owner);\n        uint[] memory result = new uint[](pixelCount);\n        uint count = 0;\n        uint supply = totalSupply();\n        for(uint i = 0; i < supply; i++){\n            uint id = takenIds[i];\n            if(idToOwner[id] == _owner){\n                result[count] = id;\n                count++;\n            }   \n        }\n        return result;\n    }\n\n    \n    function getAllIds() public view returns (uint[] memory){\n        require(idCount != 0, 'No Pixel minted yet');\n        uint[] memory ids = new uint[](idCount);\n        uint count = 0;\n        uint supply = totalSupply();\n        for(uint i = 0; i < supply; i++){\n            uint id = takenIds[i];\n            if(idToOwner[id] != address(0x0)){\n                ids[count] = id;\n                count++;\n            }   \n        }\n        return ids;\n    }\n    \n    function withdraw() public onlyOwner {\n        address contractAddress = address(this);\n        uint256 balance = contractAddress.balance;\n        owner.transfer(balance);\n    }\n    \n    function changeBuyFee(uint256 _newFee) public onlyOwner {\n        buyingFee = _newFee;\n    }\n    \n    function changeColorFee(uint256 _newFee) public onlyOwner {\n        changingFee = _newFee;\n    }\n\n    //Override transfer methods to update our owners mapping\n    function transferFrom(address from, address to, uint256 tokenId) public virtual override {\n        super.transferFrom(from, to, tokenId);\n        idToOwner[tokenId] = to;\n\n    }\n\n    function safeTransferFrom(address from, address to, uint256 tokenId) public virtual override {\n        super.safeTransferFrom(from, to, tokenId, \"\");\n        idToOwner[tokenId] = to;\n    }\n\n\n    function safeTransferFrom(address from, address to, uint256 tokenId, bytes memory _data) public virtual override {\n        super.safeTransferFrom(from, to, tokenId, _data);\n        idToOwner[tokenId] = to;\n    }\n}",
  "sourcePath": "/Users/valentin/canvas-eth/eth/contracts/Canvas.sol",
  "compiler": {
    "name": "solc",
    "version": "0.6.2+commit.bacdbe57.Emscripten.clang"
  },
  "schemaVersion": "3.3.1",
  "updatedAt": "2020-11-28T14:58:13.655Z",
  "devdoc": {
    "methods": {
      "approve(address,uint256)": {
        "details": "See {IERC721-approve}."
      },
      "balanceOf(address)": {
        "details": "See {IERC721-balanceOf}."
      },
      "baseURI()": {
        "details": "Returns the base URI set via {_setBaseURI}. This will be automatically added as a prefix in {tokenURI} to each token's URI, or to the token ID if no specific URI is set for that token ID."
      },
      "getApproved(uint256)": {
        "details": "See {IERC721-getApproved}."
      },
      "isApprovedForAll(address,address)": {
        "details": "See {IERC721-isApprovedForAll}."
      },
      "name()": {
        "details": "See {IERC721Metadata-name}."
      },
      "ownerOf(uint256)": {
        "details": "See {IERC721-ownerOf}."
      },
      "setApprovalForAll(address,bool)": {
        "details": "See {IERC721-setApprovalForAll}."
      },
      "supportsInterface(bytes4)": {
        "details": "See {IERC165-supportsInterface}.     * Time complexity O(1), guaranteed to always use less than 30 000 gas."
      },
      "symbol()": {
        "details": "See {IERC721Metadata-symbol}."
      },
      "tokenByIndex(uint256)": {
        "details": "See {IERC721Enumerable-tokenByIndex}."
      },
      "tokenOfOwnerByIndex(address,uint256)": {
        "details": "See {IERC721Enumerable-tokenOfOwnerByIndex}."
      },
      "tokenURI(uint256)": {
        "details": "See {IERC721Metadata-tokenURI}."
      },
      "totalSupply()": {
        "details": "See {IERC721Enumerable-totalSupply}."
      }
    }
  },
  "userdoc": {
    "methods": {}
  }
}